{
  "_format": "hh-sol-artifact-1",
  "contractName": "TransactionRecorder",
  "sourceName": "contracts/TransactionRecorder.sol",
  "abi": [
    {
      "anonymous": false,
      "inputs": [
        {
          "indexed": true,
          "internalType": "address",
          "name": "sender",
          "type": "address"
        },
        {
          "indexed": true,
          "internalType": "address",
          "name": "recipient",
          "type": "address"
        },
        {
          "indexed": false,
          "internalType": "uint256",
          "name": "amount",
          "type": "uint256"
        },
        {
          "indexed": false,
          "internalType": "string",
          "name": "note",
          "type": "string"
        },
        {
          "indexed": false,
          "internalType": "string",
          "name": "email",
          "type": "string"
        }
      ],
      "name": "TransactionRecorded",
      "type": "event"
    },
    {
      "inputs": [],
      "name": "getBalance",
      "outputs": [
        {
          "internalType": "uint256",
          "name": "",
          "type": "uint256"
        }
      ],
      "stateMutability": "view",
      "type": "function"
    },
    {
      "inputs": [
        {
          "internalType": "address payable",
          "name": "recipient",
          "type": "address"
        },
        {
          "internalType": "string",
          "name": "note",
          "type": "string"
        },
        {
          "internalType": "string",
          "name": "email",
          "type": "string"
        }
      ],
      "name": "sendETH",
      "outputs": [],
      "stateMutability": "payable",
      "type": "function"
    }
  ],
  "bytecode": "0x608060405234801561001057600080fd5b5061037d806100206000396000f3fe6080604052600436106100295760003560e01c806312065fe01461002e578063acc590ee1461004e575b600080fd5b34801561003a57600080fd5b504760405190815260200160405180910390f35b61006161005c36600461024a565b610063565b005b600034116100b85760405162461bcd60e51b815260206004820152601d60248201527f416d6f756e74206d7573742062652067726561746572207468616e203000000060448201526064015b60405180910390fd5b6000836001600160a01b03163460405160006040518083038185875af1925050503d8060008114610105576040519150601f19603f3d011682016040523d82523d6000602084013e61010a565b606091505b50509050806101525760405162461bcd60e51b81526020600482015260146024820152732330b4b632b2103a379039b2b7321022ba3432b960611b60448201526064016100af565b836001600160a01b0316336001600160a01b03167f67ca6c7503b976e74600c93cdf145ab767688ac57430e20705611a4c0c8f922634868660405161019993929190610312565b60405180910390a350505050565b634e487b7160e01b600052604160045260246000fd5b600082601f8301126101ce57600080fd5b813567ffffffffffffffff808211156101e9576101e96101a7565b604051601f8301601f19908116603f01168101908282118183101715610211576102116101a7565b8160405283815286602085880101111561022a57600080fd5b836020870160208301376000602085830101528094505050505092915050565b60008060006060848603121561025f57600080fd5b83356001600160a01b038116811461027657600080fd5b9250602084013567ffffffffffffffff8082111561029357600080fd5b61029f878388016101bd565b935060408601359150808211156102b557600080fd5b506102c2868287016101bd565b9150509250925092565b6000815180845260005b818110156102f2576020818501810151868301820152016102d6565b506000602082860101526020601f19601f83011685010191505092915050565b83815260606020820152600061032b60608301856102cc565b828103604084015261033d81856102cc565b969550505050505056fea264697066735822122097cb76c044264bcec3043aa7c56ab025f1194b35ad217c47ff4924aeab0e9e0364736f6c63430008180033",
  "linkReferences": {},
  "deployedLinkReferences": {}
}