{
    "_format": "hh-sol-artifact-1",
    "contractName": "DigiToken",
    "sourceName": "contracts/ClaimTokens.sol",
    "abi": [
        {
            "inputs": [],
            "stateMutability": "nonpayable",
            "type": "constructor"
        },
        {
            "inputs": [
                {
                    "internalType": "address",
                    "name": "spender",
                    "type": "address"
                },
                {
                    "internalType": "uint256",
                    "name": "allowance",
                    "type": "uint256"
                },
                {
                    "internalType": "uint256",
                    "name": "needed",
                    "type": "uint256"
                }
            ],
            "name": "ERC20InsufficientAllowance",
            "type": "error"
        },
        {
            "inputs": [
                {
                    "internalType": "address",
                    "name": "sender",
                    "type": "address"
                },
                {
                    "internalType": "uint256",
                    "name": "balance",
                    "type": "uint256"
                },
                {
                    "internalType": "uint256",
                    "name": "needed",
                    "type": "uint256"
                }
            ],
            "name": "ERC20InsufficientBalance",
            "type": "error"
        },
        {
            "inputs": [
                {
                    "internalType": "address",
                    "name": "approver",
                    "type": "address"
                }
            ],
            "name": "ERC20InvalidApprover",
            "type": "error"
        },
        {
            "inputs": [
                {
                    "internalType": "address",
                    "name": "receiver",
                    "type": "address"
                }
            ],
            "name": "ERC20InvalidReceiver",
            "type": "error"
        },
        {
            "inputs": [
                {
                    "internalType": "address",
                    "name": "sender",
                    "type": "address"
                }
            ],
            "name": "ERC20InvalidSender",
            "type": "error"
        },
        {
            "inputs": [
                {
                    "internalType": "address",
                    "name": "spender",
                    "type": "address"
                }
            ],
            "name": "ERC20InvalidSpender",
            "type": "error"
        },
        {
            "inputs": [
                {
                    "internalType": "address",
                    "name": "owner",
                    "type": "address"
                }
            ],
            "name": "OwnableInvalidOwner",
            "type": "error"
        },
        {
            "inputs": [
                {
                    "internalType": "address",
                    "name": "account",
                    "type": "address"
                }
            ],
            "name": "OwnableUnauthorizedAccount",
            "type": "error"
        },
        {
            "inputs": [],
            "name": "ReentrancyGuardReentrantCall",
            "type": "error"
        },
        {
            "anonymous": false,
            "inputs": [
                {
                    "indexed": true,
                    "internalType": "address",
                    "name": "owner",
                    "type": "address"
                },
                {
                    "indexed": true,
                    "internalType": "address",
                    "name": "spender",
                    "type": "address"
                },
                {
                    "indexed": false,
                    "internalType": "uint256",
                    "name": "value",
                    "type": "uint256"
                }
            ],
            "name": "Approval",
            "type": "event"
        },
        {
            "anonymous": false,
            "inputs": [
                {
                    "indexed": true,
                    "internalType": "address",
                    "name": "previousOwner",
                    "type": "address"
                },
                {
                    "indexed": true,
                    "internalType": "address",
                    "name": "newOwner",
                    "type": "address"
                }
            ],
            "name": "OwnershipTransferred",
            "type": "event"
        },
        {
            "anonymous": false,
            "inputs": [
                {
                    "indexed": true,
                    "internalType": "address",
                    "name": "from",
                    "type": "address"
                },
                {
                    "indexed": true,
                    "internalType": "address",
                    "name": "to",
                    "type": "address"
                },
                {
                    "indexed": false,
                    "internalType": "uint256",
                    "name": "value",
                    "type": "uint256"
                }
            ],
            "name": "Transfer",
            "type": "event"
        },
        {
            "inputs": [],
            "name": "MAX_CLAIMABLE_PER_WEEK",
            "outputs": [
                {
                    "internalType": "uint256",
                    "name": "",
                    "type": "uint256"
                }
            ],
            "stateMutability": "view",
            "type": "function"
        },
        {
            "inputs": [
                {
                    "internalType": "address",
                    "name": "owner",
                    "type": "address"
                },
                {
                    "internalType": "address",
                    "name": "spender",
                    "type": "address"
                }
            ],
            "name": "allowance",
            "outputs": [
                {
                    "internalType": "uint256",
                    "name": "",
                    "type": "uint256"
                }
            ],
            "stateMutability": "view",
            "type": "function"
        },
        {
            "inputs": [
                {
                    "internalType": "address",
                    "name": "spender",
                    "type": "address"
                },
                {
                    "internalType": "uint256",
                    "name": "value",
                    "type": "uint256"
                }
            ],
            "name": "approve",
            "outputs": [
                {
                    "internalType": "bool",
                    "name": "",
                    "type": "bool"
                }
            ],
            "stateMutability": "nonpayable",
            "type": "function"
        },
        {
            "inputs": [
                {
                    "internalType": "address",
                    "name": "account",
                    "type": "address"
                }
            ],
            "name": "balanceOf",
            "outputs": [
                {
                    "internalType": "uint256",
                    "name": "",
                    "type": "uint256"
                }
            ],
            "stateMutability": "view",
            "type": "function"
        },
        {
            "inputs": [
                {
                    "internalType": "uint256",
                    "name": "amount",
                    "type": "uint256"
                }
            ],
            "name": "claimTokens",
            "outputs": [],
            "stateMutability": "nonpayable",
            "type": "function"
        },
        {
            "inputs": [],
            "name": "decimals",
            "outputs": [
                {
                    "internalType": "uint8",
                    "name": "",
                    "type": "uint8"
                }
            ],
            "stateMutability": "view",
            "type": "function"
        },
        {
            "inputs": [
                {
                    "internalType": "address",
                    "name": "",
                    "type": "address"
                }
            ],
            "name": "lastClaimed",
            "outputs": [
                {
                    "internalType": "uint256",
                    "name": "",
                    "type": "uint256"
                }
            ],
            "stateMutability": "view",
            "type": "function"
        },
        {
            "inputs": [],
            "name": "name",
            "outputs": [
                {
                    "internalType": "string",
                    "name": "",
                    "type": "string"
                }
            ],
            "stateMutability": "view",
            "type": "function"
        },
        {
            "inputs": [],
            "name": "owner",
            "outputs": [
                {
                    "internalType": "address",
                    "name": "",
                    "type": "address"
                }
            ],
            "stateMutability": "view",
            "type": "function"
        },
        {
            "inputs": [],
            "name": "renounceOwnership",
            "outputs": [],
            "stateMutability": "nonpayable",
            "type": "function"
        },
        {
            "inputs": [],
            "name": "symbol",
            "outputs": [
                {
                    "internalType": "string",
                    "name": "",
                    "type": "string"
                }
            ],
            "stateMutability": "view",
            "type": "function"
        },
        {
            "inputs": [],
            "name": "totalSupply",
            "outputs": [
                {
                    "internalType": "uint256",
                    "name": "",
                    "type": "uint256"
                }
            ],
            "stateMutability": "view",
            "type": "function"
        },
        {
            "inputs": [
                {
                    "internalType": "address",
                    "name": "to",
                    "type": "address"
                },
                {
                    "internalType": "uint256",
                    "name": "value",
                    "type": "uint256"
                }
            ],
            "name": "transfer",
            "outputs": [
                {
                    "internalType": "bool",
                    "name": "",
                    "type": "bool"
                }
            ],
            "stateMutability": "nonpayable",
            "type": "function"
        },
        {
            "inputs": [
                {
                    "internalType": "address",
                    "name": "from",
                    "type": "address"
                },
                {
                    "internalType": "address",
                    "name": "to",
                    "type": "address"
                },
                {
                    "internalType": "uint256",
                    "name": "value",
                    "type": "uint256"
                }
            ],
            "name": "transferFrom",
            "outputs": [
                {
                    "internalType": "bool",
                    "name": "",
                    "type": "bool"
                }
            ],
            "stateMutability": "nonpayable",
            "type": "function"
        },
        {
            "inputs": [
                {
                    "internalType": "address",
                    "name": "newOwner",
                    "type": "address"
                }
            ],
            "name": "transferOwnership",
            "outputs": [],
            "stateMutability": "nonpayable",
            "type": "function"
        },
        {
            "inputs": [
                {
                    "internalType": "address",
                    "name": "",
                    "type": "address"
                }
            ],
            "name": "weeklyClaimAmount",
            "outputs": [
                {
                    "internalType": "uint256",
                    "name": "",
                    "type": "uint256"
                }
            ],
            "stateMutability": "view",
            "type": "function"
        }
    ],
    "bytecode": "0x60806040523480156200001157600080fd5b5033604051806040016040528060098152602001682234b3b4aa37b5b2b760b91b815250604051806040016040528060048152602001634449474960e01b8152508160039081620000639190620001b4565b506004620000728282620001b4565b50506001600555506001600160a01b038116620000a957604051631e4fbdf760e01b81526000600482015260240160405180910390fd5b620000b481620000bb565b5062000280565b600680546001600160a01b038381166001600160a01b0319831681179093556040519116919082907f8be0079c531659141344cd1fd0a4f28419497f9722a3daafe3b4186f6b6457e090600090a35050565b634e487b7160e01b600052604160045260246000fd5b600181811c908216806200013857607f821691505b6020821081036200015957634e487b7160e01b600052602260045260246000fd5b50919050565b601f821115620001af576000816000526020600020601f850160051c810160208610156200018a5750805b601f850160051c820191505b81811015620001ab5782815560010162000196565b5050505b505050565b81516001600160401b03811115620001d057620001d06200010d565b620001e881620001e1845462000123565b846200015f565b602080601f831160018114620002205760008415620002075750858301515b600019600386901b1c1916600185901b178555620001ab565b600085815260208120601f198616915b82811015620002515788860151825594840194600190910190840162000230565b5085821015620002705787850151600019600388901b60f8161c191681555b5050505050600190811b01905550565b610bf180620002906000396000f3fe608060405234801561001057600080fd5b50600436106101005760003560e01c8063715018a611610097578063a98d5a1511610066578063a98d5a1514610216578063c2bb3e7d14610226578063dd62ed3e14610246578063f2fde38b1461027f57600080fd5b8063715018a6146101d85780638da5cb5b146101e057806395d89b41146101fb578063a9059cbb1461020357600080fd5b806323b872dd116100d357806323b872dd14610178578063313ce5671461018b57806346e04a2f1461019a57806370a08231146101af57600080fd5b8063013eba921461010557806306fdde0314610138578063095ea7b31461014d57806318160ddd14610170575b600080fd5b610125610113366004610a22565b60076020526000908152604090205481565b6040519081526020015b60405180910390f35b610140610292565b60405161012f9190610a44565b61016061015b366004610a93565b610324565b604051901515815260200161012f565b600254610125565b610160610186366004610abd565b61033e565b6040516012815260200161012f565b6101ad6101a8366004610af9565b610362565b005b6101256101bd366004610a22565b6001600160a01b031660009081526020819052604090205490565b6101ad6105c9565b6006546040516001600160a01b03909116815260200161012f565b6101406105dd565b610160610211366004610a93565b6105ec565b61012568056bc75e2d6310000081565b610125610234366004610a22565b60086020526000908152604090205481565b610125610254366004610b12565b6001600160a01b03918216600090815260016020908152604080832093909416825291909152205490565b6101ad61028d366004610a22565b6105fa565b6060600380546102a190610b45565b80601f01602080910402602001604051908101604052809291908181526020018280546102cd90610b45565b801561031a5780601f106102ef5761010080835404028352916020019161031a565b820191906000526020600020905b8154815290600101906020018083116102fd57829003601f168201915b5050505050905090565b600033610332818585610635565b60019150505b92915050565b60003361034c858285610647565b6103578585856106c5565b506001949350505050565b61036a610724565b68056bc75e2d631000008111156103db5760405162461bcd60e51b815260206004820152602a60248201527f43616e6e6f7420636c61696d206d6f7265207468616e2031303020746f6b656e6044820152697320706572207765656b60b01b60648201526084015b60405180910390fd5b3360009081526020819052604090205468056bc75e2d631000001161044e5760405162461bcd60e51b815260206004820152602360248201527f596f75722062616c616e636520697320616c726561647920313030206f72206d6044820152626f726560e81b60648201526084016103d2565b3360009081526007602052604090205462093a809061046d9042610b95565b1180610486575033600090815260076020526040902054155b6104d25760405162461bcd60e51b815260206004820152601960248201527f416c726561647920636c61696d65642074686973207765656b0000000000000060448201526064016103d2565b3360009081526008602052604090205468056bc75e2d63100000906104f8908390610ba8565b11156105465760405162461bcd60e51b815260206004820152601a60248201527f436c61696d2065786365656473207765656b6c79206c696d697400000000000060448201526064016103d2565b3360009081526007602052604090205462093a80906105659042610b95565b111561057c57336000908152600860205260408120555b336000908152600860205260408120805483929061059b908490610ba8565b90915550503360008181526007602052604090204290556105bc908261074e565b6105c66001600555565b50565b6105d1610788565b6105db60006107b5565b565b6060600480546102a190610b45565b6000336103328185856106c5565b610602610788565b6001600160a01b03811661062c57604051631e4fbdf760e01b8152600060048201526024016103d2565b6105c6816107b5565b6106428383836001610807565b505050565b6001600160a01b0383811660009081526001602090815260408083209386168352929052205460001981146106bf57818110156106b057604051637dc7a0d960e11b81526001600160a01b038416600482015260248101829052604481018390526064016103d2565b6106bf84848484036000610807565b50505050565b6001600160a01b0383166106ef57604051634b637e8f60e11b8152600060048201526024016103d2565b6001600160a01b0382166107195760405163ec442f0560e01b8152600060048201526024016103d2565b6106428383836108dc565b60026005540361074757604051633ee5aeb560e01b815260040160405180910390fd5b6002600555565b6001600160a01b0382166107785760405163ec442f0560e01b8152600060048201526024016103d2565b610784600083836108dc565b5050565b6006546001600160a01b031633146105db5760405163118cdaa760e01b81523360048201526024016103d2565b600680546001600160a01b038381166001600160a01b0319831681179093556040519116919082907f8be0079c531659141344cd1fd0a4f28419497f9722a3daafe3b4186f6b6457e090600090a35050565b6001600160a01b0384166108315760405163e602df0560e01b8152600060048201526024016103d2565b6001600160a01b03831661085b57604051634a1406b160e11b8152600060048201526024016103d2565b6001600160a01b03808516600090815260016020908152604080832093871683529290522082905580156106bf57826001600160a01b0316846001600160a01b03167f8c5be1e5ebec7d5bd14f71427d1e84f3dd0314c0f7b2291e5b200ac8c7c3b925846040516108ce91815260200190565b60405180910390a350505050565b6001600160a01b0383166109075780600260008282546108fc9190610ba8565b909155506109799050565b6001600160a01b0383166000908152602081905260409020548181101561095a5760405163391434e360e21b81526001600160a01b038516600482015260248101829052604481018390526064016103d2565b6001600160a01b03841660009081526020819052604090209082900390555b6001600160a01b038216610995576002805482900390556109b4565b6001600160a01b03821660009081526020819052604090208054820190555b816001600160a01b0316836001600160a01b03167fddf252ad1be2c89b69c2b068fc378daa952ba7f163c4a11628f55a4df523b3ef836040516109f991815260200190565b60405180910390a3505050565b80356001600160a01b0381168114610a1d57600080fd5b919050565b600060208284031215610a3457600080fd5b610a3d82610a06565b9392505050565b60006020808352835180602085015260005b81811015610a7257858101830151858201604001528201610a56565b506000604082860101526040601f19601f8301168501019250505092915050565b60008060408385031215610aa657600080fd5b610aaf83610a06565b946020939093013593505050565b600080600060608486031215610ad257600080fd5b610adb84610a06565b9250610ae960208501610a06565b9150604084013590509250925092565b600060208284031215610b0b57600080fd5b5035919050565b60008060408385031215610b2557600080fd5b610b2e83610a06565b9150610b3c60208401610a06565b90509250929050565b600181811c90821680610b5957607f821691505b602082108103610b7957634e487b7160e01b600052602260045260246000fd5b50919050565b634e487b7160e01b600052601160045260246000fd5b8181038181111561033857610338610b7f565b8082018082111561033857610338610b7f56fea264697066735822122042228ed2a06eccc49a287967894b303cc87f2c8013e98a956a6f6be00158c4a864736f6c63430008180033",
    "linkReferences": {},
    "deployedLinkReferences": {}
}