{
  "_format": "hh-sol-artifact-1",
  "contractName": "TransactionRecorder",
  "sourceName": "contracts/TransactionRecorder.sol",
  "abi": [
    {
      "anonymous": false,
      "inputs": [
        {
          "indexed": true,
          "internalType": "address",
          "name": "sender",
          "type": "address"
        },
        {
          "indexed": true,
          "internalType": "address",
          "name": "recipient",
          "type": "address"
        },
        {
          "indexed": false,
          "internalType": "uint256",
          "name": "amount",
          "type": "uint256"
        },
        {
          "indexed": false,
          "internalType": "string",
          "name": "note",
          "type": "string"
        },
        {
          "indexed": false,
          "internalType": "string",
          "name": "email",
          "type": "string"
        }
      ],
      "name": "TransactionRecorded",
      "type": "event"
    },
    {
      "inputs": [],
      "name": "getBalance",
      "outputs": [
        {
          "internalType": "uint256",
          "name": "",
          "type": "uint256"
        }
      ],
      "stateMutability": "view",
      "type": "function"
    },
    {
      "inputs": [
        {
          "internalType": "address payable",
          "name": "recipient",
          "type": "address"
        },
        {
          "internalType": "string",
          "name": "note",
          "type": "string"
        },
        {
          "internalType": "string",
          "name": "email",
          "type": "string"
        }
      ],
      "name": "sendETH",
      "outputs": [],
      "stateMutability": "payable",
      "type": "function"
    }
  ],
  "bytecode": "0x608060405234801561001057600080fd5b5061066a806100206000396000f3fe6080604052600436106100295760003560e01c806312065fe01461002e578063acc590ee14610059575b600080fd5b34801561003a57600080fd5b50610043610075565b60405161005091906101f4565b60405180910390f35b610073600480360381019061006e91906103c7565b61007d565b005b600047905090565b600034116100c0576040517f08c379a00000000000000000000000000000000000000000000000000000000081526004016100b7906104af565b60405180910390fd5b60008373ffffffffffffffffffffffffffffffffffffffff16346040516100e690610500565b60006040518083038185875af1925050503d8060008114610123576040519150601f19603f3d011682016040523d82523d6000602084013e610128565b606091505b505090508061016c576040517f08c379a000000000000000000000000000000000000000000000000000000000815260040161016390610561565b60405180910390fd5b8373ffffffffffffffffffffffffffffffffffffffff163373ffffffffffffffffffffffffffffffffffffffff167f67ca6c7503b976e74600c93cdf145ab767688ac57430e20705611a4c0c8f92263486866040516101cd939291906105ef565b60405180910390a350505050565b6000819050919050565b6101ee816101db565b82525050565b600060208201905061020960008301846101e5565b92915050565b6000604051905090565b600080fd5b600080fd5b600073ffffffffffffffffffffffffffffffffffffffff82169050919050565b600061024e82610223565b9050919050565b61025e81610243565b811461026957600080fd5b50565b60008135905061027b81610255565b92915050565b600080fd5b600080fd5b6000601f19601f8301169050919050565b7f4e487b7100000000000000000000000000000000000000000000000000000000600052604160045260246000fd5b6102d48261028b565b810181811067ffffffffffffffff821117156102f3576102f261029c565b5b80604052505050565b600061030661020f565b905061031282826102cb565b919050565b600067ffffffffffffffff8211156103325761033161029c565b5b61033b8261028b565b9050602081019050919050565b82818337600083830152505050565b600061036a61036584610317565b6102fc565b90508281526020810184848401111561038657610385610286565b5b610391848285610348565b509392505050565b600082601f8301126103ae576103ad610281565b5b81356103be848260208601610357565b91505092915050565b6000806000606084860312156103e0576103df610219565b5b60006103ee8682870161026c565b935050602084013567ffffffffffffffff81111561040f5761040e61021e565b5b61041b86828701610399565b925050604084013567ffffffffffffffff81111561043c5761043b61021e565b5b61044886828701610399565b9150509250925092565b600082825260208201905092915050565b7f416d6f756e74206d7573742062652067726561746572207468616e2030000000600082015250565b6000610499601d83610452565b91506104a482610463565b602082019050919050565b600060208201905081810360008301526104c88161048c565b9050919050565b600081905092915050565b50565b60006104ea6000836104cf565b91506104f5826104da565b600082019050919050565b600061050b826104dd565b9150819050919050565b7f4661696c656420746f2073656e64204574686572000000000000000000000000600082015250565b600061054b601483610452565b915061055682610515565b602082019050919050565b6000602082019050818103600083015261057a8161053e565b9050919050565b600081519050919050565b60005b838110156105aa57808201518184015260208101905061058f565b60008484015250505050565b60006105c182610581565b6105cb8185610452565b93506105db81856020860161058c565b6105e48161028b565b840191505092915050565b600060608201905061060460008301866101e5565b818103602083015261061681856105b6565b9050818103604083015261062a81846105b6565b905094935050505056fea2646970667358221220a3d3466e1ab0b2a3830d84f1078c8ecb9d7260addb4d66e5ca79bada4235f14864736f6c63430008180033",
  "linkReferences": {},
  "deployedLinkReferences": {}
}