{
  "_format": "hh-sol-artifact-1",
  "contractName": "TransactionRecorder",
  "sourceName": "contracts/TransactionRecorder.sol",
  "abi": [
    {
      "inputs": [
        {
          "internalType": "address",
          "name": "_digiTokenAddress",
          "type": "address"
        }
      ],
      "stateMutability": "nonpayable",
      "type": "constructor"
    },
    {
      "anonymous": false,
      "inputs": [
        {
          "indexed": true,
          "internalType": "address",
          "name": "sender",
          "type": "address"
        },
        {
          "indexed": true,
          "internalType": "address",
          "name": "recipient",
          "type": "address"
        },
        {
          "indexed": false,
          "internalType": "uint256",
          "name": "amount",
          "type": "uint256"
        },
        {
          "indexed": false,
          "internalType": "string",
          "name": "note",
          "type": "string"
        },
        {
          "indexed": false,
          "internalType": "string",
          "name": "email",
          "type": "string"
        }
      ],
      "name": "TransactionRecorded",
      "type": "event"
    },
    {
      "inputs": [],
      "name": "digiToken",
      "outputs": [
        {
          "internalType": "contract IERC20",
          "name": "",
          "type": "address"
        }
      ],
      "stateMutability": "view",
      "type": "function"
    },
    {
      "inputs": [
        {
          "internalType": "address",
          "name": "recipient",
          "type": "address"
        },
        {
          "internalType": "uint256",
          "name": "amount",
          "type": "uint256"
        },
        {
          "internalType": "string",
          "name": "note",
          "type": "string"
        },
        {
          "internalType": "string",
          "name": "email",
          "type": "string"
        }
      ],
      "name": "sendDigiTokens",
      "outputs": [],
      "stateMutability": "nonpayable",
      "type": "function"
    }
  ],
  "bytecode": "0x608060405234801561001057600080fd5b5060405161043538038061043583398101604081905261002f91610054565b600080546001600160a01b0319166001600160a01b0392909216919091179055610084565b60006020828403121561006657600080fd5b81516001600160a01b038116811461007d57600080fd5b9392505050565b6103a2806100936000396000f3fe608060405234801561001057600080fd5b50600436106100365760003560e01c8063377a27691461003b5780634c0a5e4d14610050575b600080fd5b61004e61004936600461023c565b61007f565b005b600054610063906001600160a01b031681565b6040516001600160a01b03909116815260200160405180910390f35b6000546040516323b872dd60e01b81523360048201526001600160a01b03868116602483015260448201869052909116906323b872dd906064016020604051808303816000875af11580156100d8573d6000803e3d6000fd5b505050506040513d601f19601f820116820180604052508101906100fc91906102c8565b6101445760405162461bcd60e51b8152602060048201526015602482015274151bdad95b881d1c985b9cd9995c8819985a5b1959605a1b604482015260640160405180910390fd5b836001600160a01b0316336001600160a01b03167f67ca6c7503b976e74600c93cdf145ab767688ac57430e20705611a4c0c8f922685858560405161018b93929190610337565b60405180910390a350505050565b634e487b7160e01b600052604160045260246000fd5b600082601f8301126101c057600080fd5b813567ffffffffffffffff808211156101db576101db610199565b604051601f8301601f19908116603f0116810190828211818310171561020357610203610199565b8160405283815286602085880101111561021c57600080fd5b836020870160208301376000602085830101528094505050505092915050565b6000806000806080858703121561025257600080fd5b84356001600160a01b038116811461026957600080fd5b935060208501359250604085013567ffffffffffffffff8082111561028d57600080fd5b610299888389016101af565b935060608701359150808211156102af57600080fd5b506102bc878288016101af565b91505092959194509250565b6000602082840312156102da57600080fd5b815180151581146102ea57600080fd5b9392505050565b6000815180845260005b81811015610317576020818501810151868301820152016102fb565b506000602082860101526020601f19601f83011685010191505092915050565b83815260606020820152600061035060608301856102f1565b828103604084015261036281856102f1565b969550505050505056fea2646970667358221220aa4848015fc243446b6d9e7c133896b636bc1141ed2d7225ae9651aa9bbf412a64736f6c63430008180033",
  "linkReferences": {},
  "deployedLinkReferences": {}
}