{
  "_format": "hh-sol-artifact-1",
  "contractName": "DigiToken",
  "sourceName": "contracts/ClaimTokens.sol",
  "abi": [
    {
      "inputs": [],
      "stateMutability": "nonpayable",
      "type": "constructor"
    },
    {
      "inputs": [
        {
          "internalType": "address",
          "name": "spender",
          "type": "address"
        },
        {
          "internalType": "uint256",
          "name": "allowance",
          "type": "uint256"
        },
        {
          "internalType": "uint256",
          "name": "needed",
          "type": "uint256"
        }
      ],
      "name": "ERC20InsufficientAllowance",
      "type": "error"
    },
    {
      "inputs": [
        {
          "internalType": "address",
          "name": "sender",
          "type": "address"
        },
        {
          "internalType": "uint256",
          "name": "balance",
          "type": "uint256"
        },
        {
          "internalType": "uint256",
          "name": "needed",
          "type": "uint256"
        }
      ],
      "name": "ERC20InsufficientBalance",
      "type": "error"
    },
    {
      "inputs": [
        {
          "internalType": "address",
          "name": "approver",
          "type": "address"
        }
      ],
      "name": "ERC20InvalidApprover",
      "type": "error"
    },
    {
      "inputs": [
        {
          "internalType": "address",
          "name": "receiver",
          "type": "address"
        }
      ],
      "name": "ERC20InvalidReceiver",
      "type": "error"
    },
    {
      "inputs": [
        {
          "internalType": "address",
          "name": "sender",
          "type": "address"
        }
      ],
      "name": "ERC20InvalidSender",
      "type": "error"
    },
    {
      "inputs": [
        {
          "internalType": "address",
          "name": "spender",
          "type": "address"
        }
      ],
      "name": "ERC20InvalidSpender",
      "type": "error"
    },
    {
      "inputs": [
        {
          "internalType": "address",
          "name": "owner",
          "type": "address"
        }
      ],
      "name": "OwnableInvalidOwner",
      "type": "error"
    },
    {
      "inputs": [
        {
          "internalType": "address",
          "name": "account",
          "type": "address"
        }
      ],
      "name": "OwnableUnauthorizedAccount",
      "type": "error"
    },
    {
      "inputs": [],
      "name": "ReentrancyGuardReentrantCall",
      "type": "error"
    },
    {
      "anonymous": false,
      "inputs": [
        {
          "indexed": true,
          "internalType": "address",
          "name": "owner",
          "type": "address"
        },
        {
          "indexed": true,
          "internalType": "address",
          "name": "spender",
          "type": "address"
        },
        {
          "indexed": false,
          "internalType": "uint256",
          "name": "value",
          "type": "uint256"
        }
      ],
      "name": "Approval",
      "type": "event"
    },
    {
      "anonymous": false,
      "inputs": [
        {
          "indexed": true,
          "internalType": "address",
          "name": "previousOwner",
          "type": "address"
        },
        {
          "indexed": true,
          "internalType": "address",
          "name": "newOwner",
          "type": "address"
        }
      ],
      "name": "OwnershipTransferred",
      "type": "event"
    },
    {
      "anonymous": false,
      "inputs": [
        {
          "indexed": true,
          "internalType": "address",
          "name": "from",
          "type": "address"
        },
        {
          "indexed": true,
          "internalType": "address",
          "name": "to",
          "type": "address"
        },
        {
          "indexed": false,
          "internalType": "uint256",
          "name": "value",
          "type": "uint256"
        }
      ],
      "name": "Transfer",
      "type": "event"
    },
    {
      "inputs": [],
      "name": "MAX_CLAIMABLE_PER_WEEK",
      "outputs": [
        {
          "internalType": "uint256",
          "name": "",
          "type": "uint256"
        }
      ],
      "stateMutability": "view",
      "type": "function"
    },
    {
      "inputs": [
        {
          "internalType": "address",
          "name": "owner",
          "type": "address"
        },
        {
          "internalType": "address",
          "name": "spender",
          "type": "address"
        }
      ],
      "name": "allowance",
      "outputs": [
        {
          "internalType": "uint256",
          "name": "",
          "type": "uint256"
        }
      ],
      "stateMutability": "view",
      "type": "function"
    },
    {
      "inputs": [
        {
          "internalType": "address",
          "name": "",
          "type": "address"
        }
      ],
      "name": "amountClaimedThisWeek",
      "outputs": [
        {
          "internalType": "uint256",
          "name": "",
          "type": "uint256"
        }
      ],
      "stateMutability": "view",
      "type": "function"
    },
    {
      "inputs": [
        {
          "internalType": "address",
          "name": "spender",
          "type": "address"
        },
        {
          "internalType": "uint256",
          "name": "value",
          "type": "uint256"
        }
      ],
      "name": "approve",
      "outputs": [
        {
          "internalType": "bool",
          "name": "",
          "type": "bool"
        }
      ],
      "stateMutability": "nonpayable",
      "type": "function"
    },
    {
      "inputs": [
        {
          "internalType": "address",
          "name": "account",
          "type": "address"
        }
      ],
      "name": "balanceOf",
      "outputs": [
        {
          "internalType": "uint256",
          "name": "",
          "type": "uint256"
        }
      ],
      "stateMutability": "view",
      "type": "function"
    },
    {
      "inputs": [
        {
          "internalType": "uint256",
          "name": "amount",
          "type": "uint256"
        }
      ],
      "name": "claimTokens",
      "outputs": [],
      "stateMutability": "nonpayable",
      "type": "function"
    },
    {
      "inputs": [],
      "name": "decimals",
      "outputs": [
        {
          "internalType": "uint8",
          "name": "",
          "type": "uint8"
        }
      ],
      "stateMutability": "view",
      "type": "function"
    },
    {
      "inputs": [],
      "name": "getCurrentWeek",
      "outputs": [
        {
          "internalType": "uint256",
          "name": "",
          "type": "uint256"
        }
      ],
      "stateMutability": "view",
      "type": "function"
    },
    {
      "inputs": [
        {
          "internalType": "address",
          "name": "",
          "type": "address"
        }
      ],
      "name": "lastClaimTimestamp",
      "outputs": [
        {
          "internalType": "uint256",
          "name": "",
          "type": "uint256"
        }
      ],
      "stateMutability": "view",
      "type": "function"
    },
    {
      "inputs": [],
      "name": "name",
      "outputs": [
        {
          "internalType": "string",
          "name": "",
          "type": "string"
        }
      ],
      "stateMutability": "view",
      "type": "function"
    },
    {
      "inputs": [],
      "name": "owner",
      "outputs": [
        {
          "internalType": "address",
          "name": "",
          "type": "address"
        }
      ],
      "stateMutability": "view",
      "type": "function"
    },
    {
      "inputs": [],
      "name": "renounceOwnership",
      "outputs": [],
      "stateMutability": "nonpayable",
      "type": "function"
    },
    {
      "inputs": [],
      "name": "symbol",
      "outputs": [
        {
          "internalType": "string",
          "name": "",
          "type": "string"
        }
      ],
      "stateMutability": "view",
      "type": "function"
    },
    {
      "inputs": [],
      "name": "totalSupply",
      "outputs": [
        {
          "internalType": "uint256",
          "name": "",
          "type": "uint256"
        }
      ],
      "stateMutability": "view",
      "type": "function"
    },
    {
      "inputs": [
        {
          "internalType": "address",
          "name": "to",
          "type": "address"
        },
        {
          "internalType": "uint256",
          "name": "value",
          "type": "uint256"
        }
      ],
      "name": "transfer",
      "outputs": [
        {
          "internalType": "bool",
          "name": "",
          "type": "bool"
        }
      ],
      "stateMutability": "nonpayable",
      "type": "function"
    },
    {
      "inputs": [
        {
          "internalType": "address",
          "name": "from",
          "type": "address"
        },
        {
          "internalType": "address",
          "name": "to",
          "type": "address"
        },
        {
          "internalType": "uint256",
          "name": "value",
          "type": "uint256"
        }
      ],
      "name": "transferFrom",
      "outputs": [
        {
          "internalType": "bool",
          "name": "",
          "type": "bool"
        }
      ],
      "stateMutability": "nonpayable",
      "type": "function"
    },
    {
      "inputs": [
        {
          "internalType": "address",
          "name": "newOwner",
          "type": "address"
        }
      ],
      "name": "transferOwnership",
      "outputs": [],
      "stateMutability": "nonpayable",
      "type": "function"
    }
  ],
  "bytecode": "0x60806040523480156200001157600080fd5b5033604051806040016040528060098152602001682234b3b4aa37b5b2b760b91b815250604051806040016040528060048152602001634449474960e01b8152508160039081620000639190620001b4565b506004620000728282620001b4565b50506001600555506001600160a01b038116620000a957604051631e4fbdf760e01b81526000600482015260240160405180910390fd5b620000b481620000bb565b5062000280565b600680546001600160a01b038381166001600160a01b0319831681179093556040519116919082907f8be0079c531659141344cd1fd0a4f28419497f9722a3daafe3b4186f6b6457e090600090a35050565b634e487b7160e01b600052604160045260246000fd5b600181811c908216806200013857607f821691505b6020821081036200015957634e487b7160e01b600052602260045260246000fd5b50919050565b601f821115620001af576000816000526020600020601f850160051c810160208610156200018a5750805b601f850160051c820191505b81811015620001ab5782815560010162000196565b5050505b505050565b81516001600160401b03811115620001d057620001d06200010d565b620001e881620001e1845462000123565b846200015f565b602080601f831160018114620002205760008415620002075750858301515b600019600386901b1c1916600185901b178555620001ab565b600085815260208120601f198616915b82811015620002515788860151825594840194600190910190840162000230565b5085821015620002705787850151600019600388901b60f8161c191681555b5050505050600190811b01905550565b610c0880620002906000396000f3fe608060405234801561001057600080fd5b506004361061010b5760003560e01c806370a08231116100a2578063a9059cbb11610071578063a9059cbb14610216578063a98d5a1514610229578063bd9d518b14610239578063dd62ed3e14610259578063f2fde38b1461029257600080fd5b806370a08231146101c2578063715018a6146101eb5780638da5cb5b146101f357806395d89b411461020e57600080fd5b8063313ce567116100de578063313ce5671461017657806344d3c36c1461018557806346e04a2f146101a55780636eb227ce146101ba57600080fd5b806306fdde0314610110578063095ea7b31461012e57806318160ddd1461015157806323b872dd14610163575b600080fd5b6101186102a5565b6040516101259190610a16565b60405180910390f35b61014161013c366004610a81565b610337565b6040519015158152602001610125565b6002545b604051908152602001610125565b610141610171366004610aab565b610351565b60405160128152602001610125565b610155610193366004610ae7565b60086020526000908152604090205481565b6101b86101b3366004610b09565b610375565b005b6101556105c5565b6101556101d0366004610ae7565b6001600160a01b031660009081526020819052604090205490565b6101b86105d9565b6006546040516001600160a01b039091168152602001610125565b6101186105ed565b610141610224366004610a81565b6105fc565b61015568056bc75e2d6310000081565b610155610247366004610ae7565b60076020526000908152604090205481565b610155610267366004610b22565b6001600160a01b03918216600090815260016020908152604080832093909416825291909152205490565b6101b86102a0366004610ae7565b61060a565b6060600380546102b490610b55565b80601f01602080910402602001604051908101604052809291908181526020018280546102e090610b55565b801561032d5780601f106103025761010080835404028352916020019161032d565b820191906000526020600020905b81548152906001019060200180831161031057829003601f168201915b5050505050905090565b600033610345818585610645565b60019150505b92915050565b60003361035f858285610657565b61036a8585856106d5565b506001949350505050565b61037d610734565b600081116103d25760405162461bcd60e51b815260206004820181905260248201527f416d6f756e74206d7573742062652067726561746572207468616e207a65726f60448201526064015b60405180910390fd5b68056bc75e2d6310000081111561043e5760405162461bcd60e51b815260206004820152602a60248201527f43616e6e6f7420636c61696d206d6f7265207468616e2031303020746f6b656e6044820152697320706572207765656b60b01b60648201526084016103c9565b3360009081526020819052604090205468056bc75e2d63100000116104cb5760405162461bcd60e51b815260206004820152603d60248201527f596f75722062616c616e636520697320616c726561647920313030206f72206d60448201527f6f72652c2063616e6e6f7420636c61696d206d6f726520746f6b656e7300000060648201526084016103c9565b60006104d56105c5565b3360009081526007602052604090205490915081906104f89062093a8090610b8f565b101561050f57336000908152600860205260408120555b3360009081526008602052604090205468056bc75e2d631000006105338483610bb1565b11156105815760405162461bcd60e51b815260206004820152601b60248201527f5765656b6c7920636c61696d206c696d6974206578636565646564000000000060448201526064016103c9565b61058b8382610bb1565b3360008181526008602090815260408083209490945560079052919091204290556105b6908461075e565b50506105c26001600555565b50565b60006105d462093a8042610b8f565b905090565b6105e1610798565b6105eb60006107c5565b565b6060600480546102b490610b55565b6000336103458185856106d5565b610612610798565b6001600160a01b03811661063c57604051631e4fbdf760e01b8152600060048201526024016103c9565b6105c2816107c5565b6106528383836001610817565b505050565b6001600160a01b0383811660009081526001602090815260408083209386168352929052205460001981146106cf57818110156106c057604051637dc7a0d960e11b81526001600160a01b038416600482015260248101829052604481018390526064016103c9565b6106cf84848484036000610817565b50505050565b6001600160a01b0383166106ff57604051634b637e8f60e11b8152600060048201526024016103c9565b6001600160a01b0382166107295760405163ec442f0560e01b8152600060048201526024016103c9565b6106528383836108ec565b60026005540361075757604051633ee5aeb560e01b815260040160405180910390fd5b6002600555565b6001600160a01b0382166107885760405163ec442f0560e01b8152600060048201526024016103c9565b610794600083836108ec565b5050565b6006546001600160a01b031633146105eb5760405163118cdaa760e01b81523360048201526024016103c9565b600680546001600160a01b038381166001600160a01b0319831681179093556040519116919082907f8be0079c531659141344cd1fd0a4f28419497f9722a3daafe3b4186f6b6457e090600090a35050565b6001600160a01b0384166108415760405163e602df0560e01b8152600060048201526024016103c9565b6001600160a01b03831661086b57604051634a1406b160e11b8152600060048201526024016103c9565b6001600160a01b03808516600090815260016020908152604080832093871683529290522082905580156106cf57826001600160a01b0316846001600160a01b03167f8c5be1e5ebec7d5bd14f71427d1e84f3dd0314c0f7b2291e5b200ac8c7c3b925846040516108de91815260200190565b60405180910390a350505050565b6001600160a01b03831661091757806002600082825461090c9190610bb1565b909155506109899050565b6001600160a01b0383166000908152602081905260409020548181101561096a5760405163391434e360e21b81526001600160a01b038516600482015260248101829052604481018390526064016103c9565b6001600160a01b03841660009081526020819052604090209082900390555b6001600160a01b0382166109a5576002805482900390556109c4565b6001600160a01b03821660009081526020819052604090208054820190555b816001600160a01b0316836001600160a01b03167fddf252ad1be2c89b69c2b068fc378daa952ba7f163c4a11628f55a4df523b3ef83604051610a0991815260200190565b60405180910390a3505050565b60006020808352835180602085015260005b81811015610a4457858101830151858201604001528201610a28565b506000604082860101526040601f19601f8301168501019250505092915050565b80356001600160a01b0381168114610a7c57600080fd5b919050565b60008060408385031215610a9457600080fd5b610a9d83610a65565b946020939093013593505050565b600080600060608486031215610ac057600080fd5b610ac984610a65565b9250610ad760208501610a65565b9150604084013590509250925092565b600060208284031215610af957600080fd5b610b0282610a65565b9392505050565b600060208284031215610b1b57600080fd5b5035919050565b60008060408385031215610b3557600080fd5b610b3e83610a65565b9150610b4c60208401610a65565b90509250929050565b600181811c90821680610b6957607f821691505b602082108103610b8957634e487b7160e01b600052602260045260246000fd5b50919050565b600082610bac57634e487b7160e01b600052601260045260246000fd5b500490565b8082018082111561034b57634e487b7160e01b600052601160045260246000fdfea2646970667358221220cfb421ba138c4698f2082d9229e93df158c8d1202ef6e478e525e1b6a6edb40e64736f6c63430008180033",
  "linkReferences": {},
  "deployedLinkReferences": {}
}